:020000040000FA
:100000000C9462000C948A000C948A000C948A0070
:100010000C948A000C948A000C948A000C94D202EE
:100020000C948A000C948A000C948A000C94F702B9
:100030000C948A000C948A000C948A000C948A0018
:100040000C9488020C948A000C948A000C948A0008
:100050000C948A000C948A000C948A000C948A00F8
:100060000C948A000C948A000000000023002600F3
:10007000290000000008000201000003040700003E
:1000800000000000000000000000250028002B00F8
:1000900000000000240027002A00040404040404D3
:1000A0000404020202020202030303030303010227
:1000B00004081020408001020408102001020408F6
:1000C0001020500511241FBECFEFD8E0DEBFCDBFFA
:1000D00011E0A0E0B1E0EAE5FCE002C005900D927D
:1000E000A230B107D9F721E0A2E0B1E001C01D9232
:1000F000AC34B207E1F710E0C2E6D0E004C02197CB
:10010000FE010E942506C136D107C9F70E94B3033C
:100110000C942B060C9400008F929F92AF92BF928A
:10012000FF920F931F93CF93DF93F09049012BE041
:100130002F1508F44CC020914B0108E512E0021B7A
:10014000110927FD1395000F111F000F111F20919A
:100150004A01C8E8D0E0C21BD10927FDD395CC0FD6
:10016000DD1FCC0FDD1F4E010D2E000CAA08BB08B1
:100170009801012E000C440B550B281939094A0926
:100180005B09DC010E94E00524EB30E040E050E038
:100190000E94B605820E931EA41EB51E8C169D06E7
:1001A0002CF0E801801691060CF4E4012297CC0FA4
:1001B000DD1F2FB7F8948F2D90E0FC01EE0FFF1F8D
:1001C000E80FF91FEB5DFE4FD283C1832FBFDF9194
:1001D000CF911F910F91FF90BF90AF909F908F9004
:1001E000089590E0FC01E255FF4F249186569F4F01
:1001F000FC018491882399F090E0880F991FFC01FD
:10020000E057FF4FA591B491FC01EA57FF4F85914C
:1002100094918FB7F894EC91E22BEC938FBF0895F3
:1002200090E0FC01EE58FF4F2491FC01E255FF4F96
:100230003491FC01E656FF4FE491EE23C9F02223EE
:1002400039F0233001F1A8F4213019F1223029F1DD
:10025000F0E0EE0FFF1FEA57FF4FA591B4918FB763
:10026000F894EC91611126C030953E233C938FBFEA
:1002700008952730A9F02830C9F0243049F780913B
:1002800080008F7D03C0809180008F7780938000F5
:10029000DFCF84B58F7784BDDBCF84B58F7DFBCF77
:1002A0008091B0008F778093B000D2CF8091B00062
:1002B0008F7DF9CF3E2BDACF3FB7F89480912101A3
:1002C00090912201A0912301B091240126B5A89B11
:1002D00005C02F3F19F00196A11DB11D3FBFBA2FD8
:1002E000A92F982F8827BC01CD01620F711D811D98
:1002F000911D42E0660F771F881F991F4A95D1F71D
:1003000008958F929F92AF92BF92CF92DF92EF9219
:10031000FF926B017C010E945C014B015C01C114E6
:10032000D104E104F104B9F00E945C016819790973
:100330008A099B09683E73408105910580F321E09D
:10034000C21AD108E108F10888EE880E83E0981EF1
:10035000A11CB11CE4CFFF90EF90DF90CF90BF9035
:10036000AF909F908F90089560E085E00E9410010B
:1003700060E087E00E94100160E084E00E941001CC
:1003800060E086E00C9410010F931F9366E470E028
:1003900080E090E00E948101E0911001F091110154
:1003A000808190910A01892B8083E0910C01F0916A
:1003B0000D01808190910A01892B80838BE290E06E
:1003C0000197F1F7E0910C01F0910D01908180917E
:1003D0000A0180958923808380911801882351F038
:1003E000E0911001F0911101908180910A018095B6
:1003F00089238083E0910E01F0910F01808190911B
:100400000B01892399F090E080E0BC0190E080E04E
:1004100029E330E040E050E00E94E805C901009780
:1004200011F48AEF90E01F910F9108950E945C01F2
:10043000AB01BC018091120190911301B0E0A0E0EA
:100440008855994EAF4FBF4F840F951FA61FB71FFA
:100450008093140190931501A0931601B093170196
:10046000E0910E01F0910F01808190910B018923A1
:1004700081F40E945C0100911401109115012091FA
:10048000160130911701061717072807390740F79B
:10049000BACF0E945C012091120130911301620FCA
:1004A000731F811D911D609314017093150180933A
:1004B000160190931701E0910E01F0910F018081D8
:1004C00090910B01892381F00E945C01009114013D
:1004D0001091150120911601309117010617170789
:1004E0002807390740F78FCF0E945C012091120145
:1004F00030911301A9014550510920911401309107
:100500001501FA01E21BF30BCF01860F971F7DCF78
:100510001F920F920FB60F9211242F933F938F9338
:100520009F93AF93BF9380911D0190911E01A09165
:100530001F01B091200130911C0123E0230F2D37C2
:1005400058F50196A11DB11D20931C0180931D013A
:1005500090931E01A0931F01B0932001809121016F
:1005600090912201A0912301B09124010196A11D37
:10057000B11D8093210190932201A0932301B09398
:100580002401BF91AF919F918F913F912F910F9037
:100590000FBE0F901F90189526E8230F0296A11DFD
:1005A000B11DD2CF1F920F920FB60F9211242F932D
:1005B0003F934F935F936F937F938F939F93AF93EB
:1005C000BF93EF93FF93F0E0E0E00995FF91EF9187
:1005D000BF91AF919F918F917F916F915F914F915B
:1005E0003F912F910F900FBE0F901F9018951F9263
:1005F0000F920FB60F9211242F933F934F935F9357
:100600006F937F938F939F93AF93BF93CF93DF931A
:10061000EF93FF9380911A01C0911901D0E087FFF9
:1006200024C0109285001092840080911A018F5F7F
:1006300080931A0180911A01082E000C990B8C17D7
:100640009D0724F480911A018C30C4F180918400BC
:1006500090918500049680349C4908F47AC080917A
:10066000840090918500049676C080911A01082E2E
:10067000000C990B8C179D07C4F6E0911A018E2F80
:10068000EE0F990BFC01EE0FFF1FE80FF91FEB5D5A
:10069000FE4F808186FFC9CFE0911A018E2FEE0FA9
:1006A000990BFC01EE0FFF1FE80FF91FEB5DFE4FEA
:1006B000808160E08F730E941001B7CF2091840089
:1006C00030918500E0911A018E2FEE0F990BFC01FD
:1006D000EE0FFF1FE80FF91FEB5DFE4F8181928146
:1006E000820F931F9093890080938800E0911A01F4
:1006F0008E2FEE0F990BFC01EE0FFF1FE80FF91F75
:10070000EB5DFE4F808186FF11C0E0911A018E2FB4
:10071000EE0F990BFC01EE0FFF1FE80FF91FEB5DC9
:10072000FE4F808161E08F730E941001FF91EF9175
:10073000DF91CF91BF91AF919F918F917F916F91F9
:100740005F914F913F912F910F900FBE0F901F908F
:10075000189580E49CE990938900809388008FEF3E
:1007600080931A01E3CF789484B5826084BD84B508
:10077000816084BD85B5826085BD85B5816085BD9C
:1007800080916E00816080936E0010928100809154
:1007900081008260809381008091810081608093DC
:1007A0008100809180008160809380008091B10001
:1007B00084608093B1008091B00081608093B0002C
:1007C00080917A00846080937A0080917A008260C0
:1007D00080937A0080917A00816080937A00809182
:1007E0007A00806880937A001092C10085E00E94B0
:1007F000F10087E00E94F10086E00E94F10084E0B1
:100800000E94F100809149018C3008F050C089E0CD
:100810000E94F10080914901282F30E0F901EE0F8C
:10082000FF1FE20FF31FEB5DFE4F9081907C9960FC
:10083000908310924A0110924B012CE0622F0E948B
:100840001906829FB001112430E020E0AB01420F75
:10085000531FFA01EE0FFF1FE40FF51FEB5DFE4F74
:10086000908196FD16C02F5F3F4F2C30310571F7F8
:1008700081110FC01092800082E08093810010925D
:10088000850010928400B19A80916F0082608093FD
:100890006F00E09149018E2F90E0FC01EE0FFF1FE9
:1008A000E80FF91FEB5DFE4F80818064808383E752
:1008B00090E00E948C0060ED77E080E090E00E9484
:1008C00081010E94C40164E670E080E090E00E9433
:1008D00081010E94C40164E670E080E090E00E9423
:1008E00081010E94C40164E670E080E090E00E9413
:1008F00081010E94C401909301018093000164E68C
:1009000070E080E090E00E94810100E010E0FF24B0
:10091000F39462E370E080E090E00E948101C09176
:100920000001D0910101C531D1050CF0A2C00E9497
:10093000B40160E070E0CB010E94810110921B01C4
:1009400061E086E00E94100161E084E00E941001F5
:1009500060E087E00E94100160E085E00E941001E5
:1009600060E070E0CB010E9481010E94B40160E070
:1009700070E0CB010E94810190E080E00E948C0039
:1009800064EF71E080E090E00E9481010E94C40168
:1009900064E670E080E090E00E94810185E590E0EF
:1009A0000E948C0060E070E0CB010E9481018AEA25
:1009B00090E00E948C0064EF71E080E090E00E9483
:1009C00081010E94C4016C0164E670E080E090E067
:1009D0000E94810185E590E00E948C0060E070E05B
:1009E000CB010E94810161E0CC15DD05A4F187E017
:1009F0000E94100161E084E00E94100160E086E046
:100A00000E94100160E085E00E94100164EF71E037
:100A100080E090E00E94810161E087E00E94100187
:100A200061E085E00E94100160E086E00E94100114
:100A300060E084E00E9410010E94B4010E94C401A1
:100A400090930101809300010115110509F461CF14
:100A50000E9400005ECF86E00E94100161E085E008
:100A60000E94100160E087E00E94100160E084E0D5
:100A7000CBCF80911B018111E1CFF0921B0161E08E
:100A800087E00E94100161E085E00E94100160E0B3
:100A900086E00E94100160E084E00E941001CECF49
:100AA000EDEBF0E0249120930A01EEEBF0E0E4910D
:100AB000E0930B0189EA90E0FC013491E32FF0E030
:100AC000EE0FFF1FEA57FF4F4591549150930D01D0
:100AD00040930C01EAEAF0E0E491F0E0EE0FFF1F32
:100AE000E859FF4F4591549150930F0140930E01E7
:100AF000FC018491E82FF0E0EE0FFF1FE057FF4F5D
:100B0000A591B491B0931101A09310011092180116
:100B10008DE89FE69093130180931201EC912E2BA8
:100B20002C93E0910C01F0910D01908180910A01CC
:100B3000809589238083809119018C3098F491E00D
:100B4000980F909319018093490190E0FC01EE0FFA
:100B5000FF1FE80FF91FEB5DFE4F88EB9BE09283D0
:100B6000818308958FEF809349010895052E97FBA7
:100B70001EF400940E94CD0557FD07D00E94E805A1
:100B800007FC03D04EF40C94CD055095409530955C
:100B900021953F4F4F4F5F4F0895909580957095E9
:100BA00061957F4F8F4F9F4F08950E940A06A59F22
:100BB000900DB49F900DA49F800D911D1124089558
:100BC000B7FF0C94D5050E94D505821B930B0895A1
:100BD000A1E21A2EAA1BBB1BFD010DC0AA1FBB1F41
:100BE000EE1FFF1FA217B307E407F50720F0A21BB3
:100BF000B30BE40BF50B661F771F881F991F1A9420
:100C000069F760957095809590959B01AC01BD0149
:100C1000CF010895A29FB001B39FC001A39F700DA3
:100C2000811D1124911DB29F700D811D1124911DF4
:100C30000895991B79E004C0991F961708F0961B38
:100C4000881F7A95C9F780950895EE0FFF1F0590CC
:0C0C5000F491E02D0994F894FFCFE80324
:107E0000112484B714BE81FFF0D085E080938100F7
:107E100082E08093C00088E18093C10086E0809377
:107E2000C20080E18093C4008EE0C9D0259A86E02C
:107E300020E33CEF91E0309385002093840096BBD3
:107E4000B09BFECF1D9AA8958150A9F7CC24DD24C4
:107E500088248394B5E0AB2EA1E19A2EF3E0BF2EE7
:107E6000A2D0813461F49FD0082FAFD0023811F036
:107E7000013811F484E001C083E08DD089C08234E0
:107E800011F484E103C0853419F485E0A6D080C0E4
:107E9000853579F488D0E82EFF2485D0082F10E0AE
:107EA000102F00270E291F29000F111F8ED06801E7
:107EB0006FC0863521F484E090D080E0DECF843638
:107EC00009F040C070D06FD0082F6DD080E0C81688
:107ED00080E7D80618F4F601B7BEE895C0E0D1E017
:107EE00062D089930C17E1F7F0E0CF16F0E7DF06D8
:107EF00018F0F601B7BEE89568D007B600FCFDCFD4
:107F0000A601A0E0B1E02C9130E011968C91119780
:107F100090E0982F8827822B932B1296FA010C0160
:107F200087BEE89511244E5F5F4FF1E0A038BF0790
:107F300051F7F601A7BEE89507B600FCFDCF97BE46
:107F4000E89526C08437B1F42ED02DD0F82E2BD052
:107F50003CD0F601EF2C8F010F5F1F4F84911BD097
:107F6000EA94F801C1F70894C11CD11CFA94CF0C13
:107F7000D11C0EC0853739F428D08EE10CD085E9AC
:107F80000AD08FE07ACF813511F488E018D01DD067
:107F900080E101D065CF982F8091C00085FFFCCF94
:107FA0009093C60008958091C00087FFFCCF809118
:107FB000C00084FD01C0A8958091C6000895E0E648
:107FC000F0E098E1908380830895EDDF803219F02E
:107FD00088E0F5DFFFCF84E1DECF1F93182FE3DFCA
:107FE0001150E9F7F2DF1F91089580E0E8DFEE27F6
:047FF000FF270994CA
:027FFE00040479
:00000001FF
