:020000040000FA
:100000000C9462000C948A000C948A000C948A0070
:100010000C948A000C948A000C948A000C94950528
:100020000C948A000C948A000C948A000C94BA05F3
:100030000C948A000C948A000C948A000C948A0018
:100040000C94F3040C948A000C9463050C943D0505
:100050000C948A000C948A000C948A000C948A00F8
:100060000C948A000C948A00000000080002010031
:100070000003040700000000000000000000000072
:10008000240027002A000000000023002600290089
:1000900000000000250028002B00040404040404D0
:1000A0000404020202020202030303030303010227
:1000B00004081020408001020408102001020408F6
:1000C0001020760611241FBECFEFD8E0DEBFCDBFD3
:1000D00011E0A0E0B1E0EEE8F3E102C005900D927E
:1000E000A034B107D9F722E0A0E4B1E001C01D922D
:1000F000A235B207E1F710E0C2E6D0E004C02197D4
:10010000FE010E94BF09C136D107C9F70E946807E6
:100110000C94C5090C9400008F929F92AF92BF92ED
:10012000FF920F931F93CF93DF93F09011022BE078
:100130002F1508F44CC02091130208E512E0021BB1
:10014000110927FD1395000F111F000F111F20919A
:100150001202C8E8D0E0C21BD10927FDD395CC0F0D
:10016000DD1FCC0FDD1F4E010D2E000CAA08BB08B1
:100170009801012E000C440B550B281939094A0926
:100180005B09DC010E947A0924EB30E040E050E09A
:100190000E945009820E931EA41EB51E8C169D0649
:1001A0002CF0E801801691060CF4E4012297CC0FA4
:1001B000DD1F2FB7F8948F2D90E0FC01EE0FFF1F8D
:1001C000E80FF91FE451FE4FD283C1832FBFDF91A7
:1001D000CF911F910F91FF90BF90AF909F908F9004
:1001E0000895FC01538D448D252F30E0842F90E03D
:1001F000821B930B541710F0CF9608950197089522
:10020000FC01918D828D981761F0A28DAE0FBF2FEA
:10021000B11D5D968C91928D9F5F9F73928F90E040
:1002200008958FEF9FEF0895FC01918D828D9817AF
:1002300031F0828DE80FF11D858D90E008958FEFEC
:100240009FEF0895FC01918D228D892F90E0805CB5
:100250009F4F821B91098F7399270895FC01A48DEC
:10026000A80FB92FB11DA35ABF4F2C91848D90E0D8
:1002700001968F739927848FA689B7892C93A089BB
:10028000B1898C91837080648C93938D848D981345
:1002900006C00288F389E02D80818F7D80830895D8
:1002A000EF92FF920F931F93CF93DF93EC0181E0C6
:1002B000888F9B8D8C8D98131AC0E889F98980816D
:1002C00085FF15C09FB7F894EE89FF896083E889A0
:1002D000F98980818370806480839FBF81E090E092
:1002E000DF91CF911F910F91FF90EF900895F62E1F
:1002F0000B8D10E00F5F1F4F0F731127E02E8C8DB9
:100300008E110CC00FB607FCFACFE889F9898081FD
:1003100085FFF5CFCE010E942E01F1CFEB8DEC0FC2
:10032000FD2FF11DE35AFF4FF0829FB7F8940B8F1A
:10033000EA89FB8980818062CFCFCF93DF93EC0184
:10034000888D8823B9F0AA89BB89E889F9898C91BD
:1003500085FD03C0808186FD0DC00FB607FCF7CF79
:100360008C9185FFF2CF808185FFEDCFCE010E9479
:100370002E01E9CFDF91CF9108958FE491E00E94A3
:10038000220121E0892B09F420E0822F089580E0EA
:1003900090E0892B29F00E94BD0181110C9400008E
:1003A000089590E0FC01E859FF4F2491FC01E255CB
:1003B000FF4F3491FC01E656FF4FE491EE23C9F064
:1003C000222339F0233001F1A8F4213019F1223031
:1003D00029F1F0E0EE0FFF1FE057FF4FA591B49118
:1003E0008FB7F894EC91611126C030953E233C9371
:1003F0008FBF08952730A9F02830C9F0243049F77D
:10040000809180008F7D03C0809180008F778093E2
:100410008000DFCF84B58F7784BDDBCF84B58F7D3F
:10042000FBCF8091B0008F778093B000D2CF8091C6
:10043000B0008F7DF9CF3E2BDACFCF93DF9390E0E2
:10044000FC01E255FF4F249186569F4FFC01849199
:100450008823D1F090E0880F991FFC01E458FF4FEA
:10046000A591B491FC01E057FF4FC591D491623042
:1004700071F49FB7F8943C91822F809583238C93DD
:10048000E8812E2B28839FBFDF91CF9108958FB7EE
:10049000F894EC912E2B2C938FBFF6CF3FB7F894A6
:1004A00080914B0190914C01A0914D01B0914E0172
:1004B00026B5A89B05C02F3F19F00196A11DB11DBF
:1004C0003FBFBA2FA92F982F8827BC01CD01620FFB
:1004D000711D811D911D42E0660F771F881F991FB6
:1004E0004A95D1F708958F929F92AF92BF92CF9283
:1004F000DF92EF92FF926B017C010E944E024B0152
:100500005C01C114D104E104F104B9F00E944E026F
:10051000681979098A099B09683E7340810591052C
:1005200080F321E0C21AD108E108F10888EE880EB4
:1005300083E0981EA11CB11CE4CFFF90EF90DF90E8
:10054000CF90BF90AF909F908F900895AF92BF9241
:10055000CF92DF92EF92FF920F931F93CF93DF938F
:100560006C017B018B01040F151FEB015E01AE18BE
:10057000BF08C017D10759F06991D601ED91FC91E0
:100580000190F081E02DC6010995892B79F7C5010D
:10059000DF91CF911F910F91FF90EF90DF90CF905F
:1005A000BF90AF900895089590E080E0089560E0D6
:1005B00085E00E94D10160E087E00E94D10160E007
:1005C00084E00E94D10160E086E00C94D101CF93D9
:1005D000DF93EC0160E08E810E94D10161E08E81A9
:1005E0000E94D10160E08E810E94D1018BE891E0F0
:1005F0000197F1F7DF91CF910895CF92DF92EF92BB
:10060000FF920F931F93CF93DF936C017C0187E0E0
:10061000E80EF11CD0E0C0E0062F10E0B8010C2E6F
:1006200002C0759567950A94E2F76170F7018191B0
:100630007F010E94D1012196C430D10579F7C6010E
:10064000DF91CF911F910F91FF90EF90DF90CF90AE
:100650000C94E702CF92DF92EF92FF920F931F93D9
:10066000CF93DF93EC01F62E642F8C810E94D10191
:100670008D818F3F19F060E00E94D1010F2D10E0B5
:100680008F8584FF25C06E0187E0C80ED11CF12C38
:10069000E12CB8010E2C02C0759567950A94E2F71B
:1006A0006170F60181916F010E94D101FFEFEF1A95
:1006B000FF0A88E0E816F10461F7CE01DF91CF91DF
:1006C0001F910F91FF90EF90DF90CF900C94E70275
:1006D000B80184E0759567958A95E1F7CE010E948F
:1006E000FD026F2DCE01DF91CF911F910F91FF90F1
:1006F000EF90DF90CF900C94FD0240E0682F8AE3EA
:1007000092E00C942A03CF93DF93823029F49091E6
:10071000490298609093490280934D0210924E02D4
:1007200080E480934F0280E18093500280E58093C3
:10073000510261E080913E020E941D0280913F02C1
:100740008F3F19F061E00E941D0261E0809140023C
:100750000E941D02CAE3D2E09E012A5332408091DA
:10076000490284FD0BC084E090E0219628173907E8
:1007700044F461E08E810E941D02EECF88E090E09B
:10078000F4CF8BE39DE00197F1F760E080913E02AA
:100790000E94D10160E0809140020E94D1018091CD
:1007A0003F028F3F19F060E00E94D1018091490221
:1007B00084FD39C063E08AE392E00E94FD02CBE44D
:1007C000D6E4CE010197F1F763E08AE392E00E945C
:1007D000FD022197F1F763E08AE392E00E94FD02B7
:1007E00083E592E00197F1F762E08AE392E00E94EC
:1007F000FD028091490280620E947D0384E0809323
:100800004A028CE00E947D0381E00E947D038BE31D
:100810009FE10197F1F782E080934B0286E0DF9140
:10082000CF910C947D0380620E947D038BE496E45B
:100830000197F1F78091490280620E947D0383E570
:1008400092E00197F1F78091490280620E947D0356
:10085000D0CF41E00E942A0381E090E008950F93F9
:100860001F9366E470E080E090E00E947302E091E4
:100870001E02F0911F02808190911802892B8083C3
:10088000E0911A02F0911B02808190911802892B4D
:1008900080838BE290E00197F1F7E0911A02F091EA
:1008A0001B0290818091180280958923808380911A
:1008B0002602882351F0E0911E02F0911F029081E0
:1008C00080911802809589238083E0911C02F09129
:1008D0001D02808190911902892399F090E080E0B7
:1008E000BC0190E080E029E330E040E050E00E946D
:1008F0008209C901009711F48AE090E01F910F91DD
:1009000008950E944E02AB01BC018091200290919B
:100910002102B0E0A0E08855994EAF4FBF4F840F41
:10092000951FA61FB71F8093220290932302A093C6
:100930002402B0932502E0911C02F0911D028081F7
:1009400090911902892381F40E944E0200912202A3
:1009500010912302209124023091250206171707D7
:100960002807390740F7BACF0E944E022091200293
:1009700030912102620F731F811D911D609322022D
:10098000709323028093240290932502E0911C022D
:10099000F0911D02808190911902892381F00E94BB
:1009A0004E020091220210912302209124023091E4
:1009B0002502061717072807390740F78FCF0E942F
:1009C0004E022091200230912102A9014550510987
:1009D0002091220230912302FA01E21BF30BCF0196
:1009E000860F971F7DCF1F920F920FB60F92112483
:1009F0002F933F938F939F93AF93BF938091470122
:100A000090914801A0914901B0914A01309146016D
:100A100023E0230F2D3758F50196A11DB11D20931A
:100A200046018093470190934801A0934901B093F8
:100A30004A0180914B0190914C01A0914D01B091E0
:100A40004E010196A11DB11D80934B0190934C0165
:100A5000A0934D01B0934E01BF91AF919F918F91A3
:100A60003F912F910F900FBE0F901F90189526E881
:100A7000230F0296A11DB11DD2CF1F920F920FB668
:100A80000F9211242F933F934F935F936F937F9314
:100A90008F939F93AF93BF93EF93FF938FE491E076
:100AA0000E942E01FF91EF91BF91AF919F918F9185
:100AB0007F916F915F914F913F912F910F900FBE5A
:100AC0000F901F9018951F920F920FB60F9211243E
:100AD0002F938F939F93EF93FF93E0915F01F0919A
:100AE00060018081E0916501F091660182FD1BC08B
:100AF0009081809168018F5F8F73209169018217C7
:100B000041F0E0916801F0E0E15BFE4F958F80934A
:100B10006801FF91EF919F918F912F910F900FBEE0
:100B20000F901F9018958081F4CF1F920F920FB6EF
:100B30000F9211242F933F934F935F936F937F9363
:100B40008F939F93AF93BF93EF93FF93F0E0E0E019
:100B50000995FF91EF91BF91AF919F918F917F91F7
:100B60006F915F914F913F912F910F900FBE0F901A
:100B70001F9018951F920F920FB60F9211242F936A
:100B80003F934F935F936F937F938F939F93AF9315
:100B9000BF93CF93DF93EF93FF9380914401C09174
:100BA0001002D0E087FF24C01092850010928400CC
:100BB000809144018F5F8093440180914401082E0D
:100BC000000C990B8C179D0724F4809144018C3004
:100BD000C4F18091840090918500049680349C49F2
:100BE00008F47AC08091840090918500049676C0C4
:100BF00080914401082E000C990B8C179D07C4F6B8
:100C0000E09144018E2FEE0F990BFC01EE0FFF1FB8
:100C1000E80FF91FE451FE4F808186FFC9CFE091B4
:100C200044018E2FEE0F990BFC01EE0FFF1FE80F12
:100C3000F91FE451FE4F808160E08F730E94D10163
:100C4000B7CF2091840030918500E09144018E2F30
:100C5000EE0F990BFC01EE0FFF1FE80FF91FE45197
:100C6000FE4F81819281820F931F90938900809320
:100C70008800E09144018E2FEE0F990BFC01EE0FDE
:100C8000FF1FE80FF91FE451FE4F808186FF11C05E
:100C9000E09144018E2FEE0F990BFC01EE0FFF1F28
:100CA000E80FF91FE451FE4F808161E08F730E94CD
:100CB000D101FF91EF91DF91CF91BF91AF919F91C2
:100CC0008F917F916F915F914F913F912F910F90F5
:100CD0000FBE0F901F90189580E49CE990938900B7
:100CE000809388008FEF80934401E3CFCF93DF930D
:100CF000109252011092510188EE93E0A0E0B0E012
:100D00008093530190935401A0935501B0935601E1
:100D100086E091E09093500180934F0185EC90E044
:100D200090935C0180935B0184EC90E090935E0172
:100D300080935D0180EC90E09093600180935F016F
:100D400081EC90E0909362018093610182EC90E0ED
:100D5000909364018093630186EC90E09093660128
:100D600080936501109268011092690110926A01E6
:100D700010926B0110923D0210923C0288E191E0CA
:100D800090933B0280933A0281E080933E02CFEF42
:100D9000C0933F0282E08093400288E0809341024A
:100DA00089E0809342028AE080934302DBE0D093A3
:100DB000440210924502109246021092470210928D
:100DC00048021092490281E00E9483038CE08093E4
:100DD0002C02D0932D02EAEBF0E0E491E0932E0296
:100DE000E6EAF0E0E491E0932F0280E89EE3A0E0E1
:100DF000B0E08093340290933502A0933602B09312
:100E00003702EDEBF0E0249120931802EEEBF0E0D6
:100E1000E491E093190289EA90E0FC013491E32F18
:100E2000F0E0EE0FFF1FE057FF4F459154915093B4
:100E30001B0240931A02EAEAF0E0E491F0E0EE0FC0
:100E4000FF1FEA57FF4F4591549150931D02409365
:100E50001C02FC018491E82FF0E0EE0FFF1FE45824
:100E6000FF4FA591B491B0931F02A0931E02109260
:100E700026028DE89FE69093210280932002EC9158
:100E80002E2B2C93E0911A02F0911B0290818091FD
:100E90001802809589238083809110028C30A8F4F9
:100EA00091E0980F909310028093110290E0FC0162
:100EB000EE0FFF1FE80FF91FE451FE4F88EB9BE098
:100EC00092838183DF91CF910895C0931102FACF6D
:100ED000789484B5826084BD84B5816084BD85B515
:100EE000826085BD85B5816085BD80916E00816021
:100EF00080936E00109281008091810082608093C7
:100F000081008091810081608093810080918000C8
:100F10008160809380008091B10084608093B100F3
:100F20008091B00081608093B00080917A008460ED
:100F300080937A0080917A00826080937A00809119
:100F40007A00816080937A0080917A008068809333
:100F50007A001092C10061E085E00E941D0261E00C
:100F600087E00E941D0261E086E00E941D0261E0B0
:100F700084E00E941D02809111028C3008F051C063
:100F800061E089E00E941D0280911102282F30E06B
:100F9000F901EE0FFF1FE20FF31FE451FE4F9081A6
:100FA000907C9960908310921202109213022CE0B0
:100FB000622F0E94B309829FB001112430E020E02B
:100FC000AB01420F531FFA01EE0FFF1FE40FF51F95
:100FD000E451FE4F908196FD16C02F5F3F4F2C309D
:100FE000310571F781110FC01092800082E080936B
:100FF00081001092850010928400B19A80916F0058
:10100000826080936F00E09111028E2F90E0FC01CE
:10101000EE0FFF1FE80FF91FE451FE4F808180643F
:10102000808383E790E00E948C0060ED77E080E0B1
:1010300090E00E9473020E942F0464E670E080E05A
:1010400090E00E9473020E942F0464E670E080E04A
:1010500090E00E9473020E942F0464E670E080E03A
:1010600090E00E9473020E942F04909301018093EC
:10107000000164E670E080E090E00E94730262E0AC
:1010800080912C020E941D022FB7F8948091470195
:1010900090914801A0914901B0914A012FBF805D14
:1010A0009740A109B1098093300290933102A09337
:1010B0003202B093330287E38093390282E00E94C8
:1010C00083034DE050E060E271E08AE392E00E9429
:1010D000A602E0914D02E23008F0BBC0E150F0E022
:1010E000E65CFD4F848980680E947D0340E150E00A
:1010F0006EE271E08AE392E00E94A60200E010E056
:10110000FF24F39462E370E080E090E00E947302B9
:10111000C0910001D0910101C333D1050CF0A9C0E9
:101120000E94D70260E070E0CB010E94730210922F
:10113000450161E086E00E94D10161E084E00E9407
:10114000D10160E087E00E94D10160E085E00E946B
:10115000D10160E070E0CB010E9473020E94D702CF
:1011600060E070E0CB010E94730290E080E00E949A
:101170008C0064EF71E080E090E00E9473020E94B6
:101180002F0464E670E080E090E00E94730285E541
:1011900090E00E948C0060E070E0CB010E9473023E
:1011A0008AEA90E00E948C0064EF71E080E090E0B9
:1011B0000E9473020E942F046C0164E670E080E0DC
:1011C00090E00E94730285E590E00E948C0060E050
:1011D00070E0CB010E94730261E0CC15DD05DCF10B
:1011E00087E00E94D10161E084E00E94D10160E0CB
:1011F00086E00E94D10160E085E00E94D10164EFA9
:1012000071E080E090E00E94730261E087E00E945C
:10121000D10161E085E00E94D10160E086E00E949A
:10122000D10160E084E00E94D1010E94D7020E94B7
:101230002F0490930101809300010115110509F419
:1012400061CF0E94BD01882309F45CCF0E94000099
:1012500059CFE1E044CF86E00E94D10161E085E012
:101260000E94D10160E087E00E94D10160E084E04B
:10127000C4CF809145018111DACFF092450161E040
:1012800087E00E94D10161E085E00E94D10160E029
:1012900086E00E94D10160E084E00E94D101C7CFC6
:1012A000052E97FB1EF400940E94670957FD07D096
:1012B0000E94820907FC03D04EF40C9467095095F4
:1012C0004095309521953F4F4F4F5F4F0895909532
:1012D0008095709561957F4F8F4F9F4F08950E9425
:1012E000A409A59F900DB49F900DA49F800D911D02
:1012F00011240895B7FF0C946F090E946F09821B97
:10130000930B0895A1E21A2EAA1BBB1BFD010DC071
:10131000AA1FBB1FEE1FFF1FA217B307E407F507A5
:1013200020F0A21BB30BE40BF50B661F771F881F81
:10133000991F1A9469F760957095809590959B0117
:10134000AC01BD01CF010895A29FB001B39FC001C0
:10135000A39F700D811D1124911DB29F700D811DE1
:101360001124911D0895991B79E004C0991F9617C7
:1013700008F0961B881F7A95C9F780950895EE0F9F
:10138000FF1F0590F491E02D0994F894FFCFE80336
:10139000000000005001A602F1009D0122010001A1
:1013A0001401000000002904A602D402D3027465CF
:1013B0006D703A2033332E323020430048756D690A
:0E13C000646974793A2034382E3230250000EA
:107E0000112484B714BE81FFF0D085E080938100F7
:107E100082E08093C00088E18093C10086E0809377
:107E2000C20080E18093C4008EE0C9D0259A86E02C
:107E300020E33CEF91E0309385002093840096BBD3
:107E4000B09BFECF1D9AA8958150A9F7CC24DD24C4
:107E500088248394B5E0AB2EA1E19A2EF3E0BF2EE7
:107E6000A2D0813461F49FD0082FAFD0023811F036
:107E7000013811F484E001C083E08DD089C08234E0
:107E800011F484E103C0853419F485E0A6D080C0E4
:107E9000853579F488D0E82EFF2485D0082F10E0AE
:107EA000102F00270E291F29000F111F8ED06801E7
:107EB0006FC0863521F484E090D080E0DECF843638
:107EC00009F040C070D06FD0082F6DD080E0C81688
:107ED00080E7D80618F4F601B7BEE895C0E0D1E017
:107EE00062D089930C17E1F7F0E0CF16F0E7DF06D8
:107EF00018F0F601B7BEE89568D007B600FCFDCFD4
:107F0000A601A0E0B1E02C9130E011968C91119780
:107F100090E0982F8827822B932B1296FA010C0160
:107F200087BEE89511244E5F5F4FF1E0A038BF0790
:107F300051F7F601A7BEE89507B600FCFDCF97BE46
:107F4000E89526C08437B1F42ED02DD0F82E2BD052
:107F50003CD0F601EF2C8F010F5F1F4F84911BD097
:107F6000EA94F801C1F70894C11CD11CFA94CF0C13
:107F7000D11C0EC0853739F428D08EE10CD085E9AC
:107F80000AD08FE07ACF813511F488E018D01DD067
:107F900080E101D065CF982F8091C00085FFFCCF94
:107FA0009093C60008958091C00087FFFCCF809118
:107FB000C00084FD01C0A8958091C6000895E0E648
:107FC000F0E098E1908380830895EDDF803219F02E
:107FD00088E0F5DFFFCF84E1DECF1F93182FE3DFCA
:107FE0001150E9F7F2DF1F91089580E0E8DFEE27F6
:047FF000FF270994CA
:027FFE00040479
:00000001FF
